:100000000C9448000C947A050C9470000C947000C9
:100010000C9498170C9470000C9470000C94700061
:100020000C9470000C9470000C9470000C94700090
:100030000C9470000C9470000C9470000C94700080
:100040000C94B0060C9470000C9470000C9470002A
:100050000C9470000C9470000C9470000C94700060
:100060000C9470000C94700047106C1085108E106A
:10007000BE10A610D41005145813CC15CC151416A8
:10008000621614166216D214551548141815FB176B
:1000900011241FBECFEFD8E0DEBFCDBF11E0A0E03E
:1000A000B1E0EEE5F8E302C005900D92AC31B10786
:1000B000D9F721E0ACE1B1E001C01D92AB3BB20742
:1000C000E1F710E0C8E4D0E004C02197FE010E94EF
:1000D0000D1CC734D107C9F70E94F8120C942D1CCF
:1000E0000C940000FC0110821182128208950E947B
:1000F000680808951F93CF93DF9380ED0E949708BF
:1001000080E00E94CB0881ED0E94BF080E94DD08BC
:10011000C82FC295CF70CC0F9C2F990F990FC90F84
:100120008F70C80F0E94DD08D82FD295DF70DD0FC9
:100130009D2F990F990FD90F8F70D80F0E94E80843
:10014000182F12951F70110F912F990F990F190FDA
:100150008F70180F0E94C208612F7D2F8C2FDF91A6
:10016000CF911F9108950F931F93CF93DF93062F85
:10017000142FD22F80ED0E94970887E00E94CB08B1
:10018000CDEC0C9F912D1124969596959695292F3F
:10019000220F822F880F880F820F081B802F20E1EB
:1001A000929F800D11240E94CB081C9F912D112439
:1001B000969596959695292F220F822F880F880F56
:1001C000820F181B812F20E1929F800D11240E9425
:1001D000CB08DC9FC12D1124C695C695C6959C2FD2
:1001E000990F892F880F880F890FD81B8D2F90E1C9
:1001F000C99F800D11240E94CB0888EC0E94CB0877
:100200000E94C208DF91CF911F910F910895E62FB0
:10021000F0E0E21BF10942F4442311F0415001C027
:1002200047E1621B645C01C0621B242F462F60E023
:100230000E94B30008951F93CF93DF9380ED0E9437
:10024000970887E00E94CB0881ED0E94BF080E94BA
:10025000DD08C82FC295CF70CC0F9C2F990F990F36
:10026000C90F8F70C80F0E94DD08D82FD295DF709C
:10027000DD0F9D2F990F990FD90F8F70D80F0E9406
:10028000E808182F12951F70110F912F990F990FD1
:10029000190F8F70180F0E94C208612F7D2F8C2FAD
:1002A000DF91CF911F910895CF93C62F0E941B011C
:1002B000462F972F2C2F30E0270F311D2C3331057F
:1002C00054F0673119F061E0640F01C060E074EC34
:1002D000790F7C0F01C07C0FCF9108951F93CF93AE
:1002E000DF93162FD42F80ED0E9497088BE00E9499
:1002F000CB08CDEC1C9F912D112496959695969543
:10030000292F220F822F880F880F820F181B812F11
:1003100020E1929F800D11240E94CB08DC9FC12D0B
:100320001124C695C695C6959C2F990F892F880FC5
:10033000880F890FD81B8D2F90E1C99F800D112444
:100340000E94CB0888EC0E94CB080E94C208DF9173
:10035000CF911F910895E62FF0E0E21BF10942F4DE
:10036000442311F0415001C047E1621B645C01C0AD
:10037000621B0E946E010895CF93DF9380ED0E946F
:1003800097088BE00E94CB0881ED0E94BF080E9475
:10039000DD08C82FC295CF70CC0F9C2F990F990FF5
:1003A000C90F8F70C80F0E94E808D82FD295DF7050
:1003B000DD0F9D2F990F990FD90F8F70D80F0E94C5
:1003C000C2086D2F7C2F80E0DF91CF910895CF93ED
:1003D000C62F0E94BC01462F972F2C2F30E0270FED
:1003E000311D2C33310554F0673119F061E0640F91
:1003F00001C060E074EC790F7C0F01C07C0FCF91DD
:100400000895CF92DF92EF92FF921F93CF93DF93E5
:1004100080ED0E94970881E10E94CB0881ED0E9447
:10042000BF080E94DD08182F0E94E808C82F0E940C
:10043000C208D0E00C2ECD2F000CCC1FDD0B000C21
:10044000CC1FDD1F112364F4612F70E07F6F072E36
:10045000000C880B990B0E947D1A6B017C0108C06F
:10046000612F70E080E090E00E947D1A6B017C01BA
:10047000BE017727072E000C880B990B0E947D1A6E
:1004800020E030E040E85EE30E940E1BA7019601E9
:100490000E946E19DF91CF911F91FF90EF90DF9036
:1004A000CF900895CF93C62F80ED0E9497088C2F90
:1004B0000E94CB0881ED0E94BF080E94E808C82F67
:1004C0000E94C2088C2FCF9108956FE00E945202C3
:1004D000817008956FE00E945202869581700895A0
:1004E000CF93DF93D62FC42F80ED0E9497088D2FD6
:1004F0000E94CB088C2F0E94CB080E94C208DF917B
:10050000CF910895CF93DF93EC016FE00E945202E8
:10051000482F4E7F6FE0CE010E947002DF91CF9195
:1005200008951F93CF93DF93EC01162F6EE00E9486
:1005300052028E7F412F482B6EE0CE010E94700246
:10054000DF91CF911F910895CF93DF93EC016FE07E
:100550000E945202482F4D7F6FE0CE010E94700230
:10056000DF91CF9108950F931F93CF938C01C62FE6
:100570006EE00E9452024C2F440F8D7F482B6EE09C
:10058000C8010E947002CF911F910F9108950F939F
:100590001F93CF938C01C62F6FE00E9452024C2F05
:1005A000440F440F440F877F482B6FE0C8010E941F
:1005B0007002CF911F910F9108950F931F93CF93C6
:1005C0008C01C62F6EE00E9452024C2F440F440F44
:1005D0008B7F482B6EE0C8010E947002CF911F9163
:1005E0000F91089580912701833009F067C28091AF
:1005F0004E0190914F01892B09F060C280914C010E
:1006000090914D01892B09F059C2F89480912501F0
:100610009091260181152FEF920709F0CDC18091AD
:100620002301909124018F3F2FEF920709F445C2D7
:100630009093220180932101209152012F5F2093FA
:10064000520120913801222309F4AEC184342BEBEE
:10065000920709F4F0C008F03FC084352BEA9207F6
:1006600009F4EFC0D0F4893526EA920709F4D7C01F
:1006700050F48D3522EA920709F497C08C35934ADD
:1006800009F470C082C1883527EA920709F4C1C015
:1006900085359A4A09F4DBC078C18C3423EB920784
:1006A00009F4F3C050F481352EEA920709F4E7C04B
:1006B00080359F4A09F4DDC068C1883427EB920772
:1006C00009F4D1C085342AEB920709F4AEC089340D
:1006D000964B09F05AC1C1C08A3125EE920709F440
:1006E000F8C0F0F48F3120EE920709F4E0C048F42E
:1006F00081342EEB920709F47BC080349F4B79F153
:1007000044C18C3123EE920709F4C5C08B3124EE2D
:10071000920709F4E4C08D31924E09F036C1C1C090
:10072000873128EE920709F415C150F4893126EE7D
:10073000920709F4C8C08831974E09F4BEC025C19C
:1007400085302AEF920709F4EAC084302BEF920734
:1007500009F4CBC083319C4E09F017C108C10E9437
:10076000750CC1C180910301843618F48B5F8093AE
:1007700003018BE090E090930901809308011092AF
:100780005E0110926E0110926F0110927001109232
:1007900071018091360190913701892B09F009C1CF
:1007A00083E491E00E94F50904C18091030188234C
:1007B00019F08550809303018BE090E0909309013C
:1007C0008093080110925E0110926E0110926F01E9
:1007D0001092700110927101809136019091370151
:1007E000892B09F0E6C083E491E00E94F509E1C09D
:1007F0008AE090E0909309018093080110925E01D5
:1008000010926E0110926F0110927001109271019E
:10081000D0C040E060E08FEF0E94620D64C140E014
:100820006FEF80E00E94620D5EC14FEF60E080E0FC
:100830000E94620D58C140E560E58FEF0E94620D95
:1008400052C140E06AE08FEF0E94620D4CC144E16A
:100850006FEF80E00E94620D46C14FEF64E680E0DA
:100860000E94620D40C144E16CE38FEF0E94620D73
:100870003AC140E064E18FEF0E94620D34C14CE365
:100880006FEF80E00E94620D2EC144E16CE38FEFB8
:100890000E94620D28C140E06EE18FEF0E94620D60
:1008A00022C146E96FEF80E00E94620D1CC145EA5B
:1008B00065EA8FEF0E94620D16C140E068E28FEF9B
:1008C0000E94620D10C14FEF6FEF80E00E94620D39
:1008D0000AC14EE160E08FEF0E94620D04C14FEF4C
:1008E0006FEF8FEF0E94620DFEC0809136019091F4
:1008F0003701039709F44FC083E090E090933701EC
:10090000809336019093010180930001109266015B
:100910001092670110926801109269014AC080919B
:100920003601909137010497B1F184E090E0909303
:1009300037018093360183E090E09093010180932A
:1009400000011092660110926701109268011092E6
:1009500069012FC0809104019091050183339105B5
:1009600040F1C297909305018093040122C08091C9
:10097000040190910501883E23E09207D0F4C296CD
:10098000909305018093040114C0809136019091E9
:100990003701029771F083E491E00E94F50910920B
:1009A00037011092360105C080349F4B11F40E942C
:1009B000020C1092270181C0892B09F07EC0809122
:1009C000230190912401019609F077C080912101C3
:1009D000909122018C3523EA920779F020F48D352D
:1009E000924A69F168C0873128EE920709F449C03C
:1009F00083319C4E09F452C05EC08091030184365D
:100A000018F48B5F80930301809136019091370138
:100A1000892B21F483E491E00E94F5098BE090E0BA
:100A2000909309018093080110925E0110926E016B
:100A300010926F0110927001109271013CC0809170
:100A40000301882319F085508093030180913601BA
:100A500090913701892B21F483E491E00E94F509FC
:100A60008BE090E0909309018093080110925E0161
:100A700010926E0110926F0110927001109271012C
:100A80001AC080910401909105018333910598F07B
:100A9000C29790930501809304010DC080910401D9
:100AA00090910501883E23E0920728F4C296909326
:100AB00005018093040110922701789480914C01E4
:100AC00090914D018230910541F08330910541F0C4
:100AD000019779F40E94C50B08950E94360C089581
:100AE0000E949C0C089580913801882309F461CFFD
:100AF0004CCF08951F920F920FB60F9211240F93AF
:100B00001F932F933F934F935F936F937F938F9395
:100B10009F93AF93BF93EF93FF9380912C0190919C
:100B20002D0126B5A0E0B0E0BA2FA92F982F882775
:100B3000820F911DA11DB11D880F991FAA1FBB1FF8
:100B4000880F991FAA1FBB1F880F991FAA1FBB1FC1
:100B5000409128015091290160912A0170912B0147
:100B60008C019D01041B150B260B370BB901A80145
:100B70008093280190932901A0932A01B0932B011F
:100B80004115510511E06107710520F4423320ED54
:100B9000520720F081E080931C015FC080911C010E
:100BA000882309F45AC080FF15C0813031F44F3ECC
:100BB0005441D0F510921C0150C08334A8F110921A
:100BC0001C01EDE1F1E082819381292F20958217AC
:100BD00099F12EC08230A1F449339DE0590720F5E8
:100BE000473B574050F0EDE1F1E0118210828FEF6A
:100BF0008383828310921C011FC010921C012DC0A0
:100C0000E82FE695E250E695E695E695F0E0E35E9E
:100C1000FE4F208130E0359527954936544010F439
:100C2000208302C0206820838F5F80931C0115C041
:100C30008F3F99F49F3F89F4EDE1F1E0208131810C
:100C40008281938143E040932701309326012093D2
:100C500025019093240180932301FF91EF91BF918F
:100C6000AF919F918F917F916F915F914F913F9144
:100C70002F911F910F910F900FBE0F901F901895FD
:100C80006AEA7FE082EA91E00E9438186BE97EE030
:100C900082EA91E00E943C1864EF71E082EA91E000
:100CA0000E9434186CE170E18DE891E00E943818E0
:100CB0006AE171E18DE891E00E943C1860EB7EE012
:100CC00088E791E00E94381867E77FE088E791E0C5
:100CD0000E943C1863E97FE088E791E00E94401899
:100CE000089587EB91E00E94770060E087EB91E048
:100CF0000E94C70261E087EB91E00E94DD0287EB72
:100D000091E00E94820287EB91E00E94A40261E0E0
:100D100087EB91E00E94910261E087EB91E00E94F5
:100D2000B302089581E08093800082E08093810087
:100D300091EA9093B0008093B100089585B58360E7
:100D400085BDEEE6F0E0808181608083089560914A
:100D500032017091330180913401909135010895F1
:100D60001F920F920FB60F9211240F931F932F9380
:100D70003F934F935F936F937F938F939F93AF9323
:100D8000BF938091320190913301A0913401B091D1
:100D9000350100912E0110912F01209130013091E9
:100DA0003101B901A8014A5F5F4F6F4F7F4F4D3747
:100DB00051056105710520F40296A11DB11D09C000
:100DC000B901A80147575109610971090396A11D8D
:100DD000B11D40932E0150932F0160933001709309
:100DE00031018093320190933301A0933401B09389
:100DF000350180912C0190912D01019690932D0148
:100E000080932C01BF91AF919F918F917F916F91B2
:100E10005F914F913F912F911F910F910F900FBEB6
:100E20000F901F90189580915901811106C06FE0B5
:100E300088EB91E00E94D71808956AE088EB91E072
:100E40000E94D7180895DF92EF92FF920F931F939D
:100E5000CF93DF938C01611102C0D0E001C0D0E8D4
:100E6000F80160816F3649F16A3000F1CDEC6C9F7A
:100E7000612D112466956695669588EB91E00E9438
:100E80006619E82EF80160816C9FC12D1124C6956A
:100E9000C695C695CC0F8C2F880F880FC80F6C1B7A
:100EA00088EB91E00E946619C82F09C088EB91E099
:100EB0000E946619C82FE12C02C0C0E0E12CF801A5
:100EC00061816F3699F16A3018F10F2EFDECFF2E1B
:100ED000F02D6F9D612D112466956695669588EBC2
:100EE00091E00E946619D82EF80161816F9DF12C66
:100EF0001124F694F694F694FF0C8F2D880F880F2A
:100F0000F80E6F1988EB91E00E946619082F10C047
:100F100060E088EB91E00E946619D82EF8016181AB
:100F200088EB91E00E946619082F02C000E0D12CE6
:100F30004D2F4C0F2D2D6E2D88EB91E00E94261920
:100F4000DF91CF911F910F91FF90EF90DF90089567
:100F5000FF920F931F93CF93DF9300D01F92CDB7D3
:100F6000DEB7F82E062F142FCE0101960E947200D4
:100F7000F9820A83612FCE0101960E9423070F9008
:100F80000F900F90DF91CF911F910F91FF900895D7
:100F90000F93CF93DF93C82F0E941307C436C9F471
:100FA00060E088EB91E00E946619082F60E088EB12
:100FB00091E00E946619C82F61E088EB91E00E94E1
:100FC00066192C2F482F60E088EB91E00E942619CB
:100FD00040C0CA3008F1DDECCD9FD12D1124D6954B
:100FE000D695D6959D2F990F892F880F880F890F39
:100FF0006C2F681B88EB91E00E946619082F6D2FFB
:1010000088EB91E00E946619282F40E060E088EBB1
:1010100091E00E9426191DC0C1110EC061E088EB4D
:1010200091E00E946619082F20E040E060E088EB24
:1010300091E00E9426190DC06C2F88EB91E00E9470
:101040006619082F20E040E060E088EB91E00E9404
:101050002619DF91CF910F9108950F93CF93DF93CE
:10106000C82F0E941307CA3010F1DDECCD9FD12D9F
:101070001124D695D695D6959D2F990F892F880F37
:10108000880F890F6C2F681B88EB91E00E9466190E
:10109000C82F6D2F88EB91E00E94661909E323E6C3
:1010A0004C2F682F88EB91E00E9426190DC06C2F01
:1010B00088EB91E00E94661909E323E6482F60E07F
:1010C00088EB91E00E942619DF91CF910F9108954E
:1010D0001092B90080E28093B800459A449A08952E
:1010E00094EA9093BC00ECEBF0E090819923ECF74C
:1010F0009091B900987F983011F09031A1F48093CD
:10110000BB0084E88093BC00ECEBF0E08081882396
:10111000ECF79091B900987F983139F081E09034E4
:1011200029F480E0089581E0089580E00895CF9348
:10113000DF93ECEBF0E024EAA9EBB0E0CBEBD0E0FE
:1011400034E844E9208390819923ECF79C91987FBF
:10115000983011F09031B1F78883308390819923D2
:10116000ECF79C91987F903211F0983529F44083E8
:10117000908194FDFDCFE6CFDF91CF9108950E943D
:101180007008089584E98093BC00ECEBF0E0808166
:1011900084FDFDCF08958093BB0084E88093BC005C
:1011A000ECEBF0E080818823ECF79091B900987F18
:1011B00081E0983209F480E0089584EC8093BC00CB
:1011C000ECEBF0E080818823ECF78091BB00089580
:1011D00084E88093BC00ECEBF0E080818823ECF79E
:1011E0008091BB000895811107C0E0E8F0E08081A4
:1011F0008F77808329980AC0E0E8F0E090819068BA
:10120000908390E09093890080938800411107C0FB
:10121000E0E8F0E080818F7D80832A980AC0E0E8D2
:10122000F0E080818062808350E050938B00409397
:101230008A00611107C0E0EBF0E080818F77808346
:101240002B980895E0EBF0E08081806880836093C4
:10125000B3000895962F672F482F892F0E94F30817
:101260000895CF92DF92EF92FF921F93CF93DF9377
:10127000182FD62FC42F211169C08823B9F0682FE9
:1012800070E080E090E00E947B1A6B017C016D2F82
:1012900070E080E090E00E947D1A9B01AC01C701E4
:1012A000B6010E94091B181624F12DC06623B1F067
:1012B00070E080E090E00E947B1A6B017C016D2F52
:1012C00070E080E090E00E947D1A9B01AC01C701B4
:1012D000B6010E94091B181674F015C0442399F03A
:1012E000642F70E080E090E00E947B1A6B017C012B
:1012F0000AC0DD2341F06D2F70E080E090E00E9495
:101300007B1A6B017C016C2F70E080E090E00E9402
:101310007D1A9B01AC01C701B6010E94091B18167A
:1013200054F4CC2341F06C2F70E080E090E00E94F8
:101330007B1A6B017C01A701960160E070E080E8F8
:101340009FE30E94DA196B017C010EC0622F70E0EE
:1013500080E090E00E947D1A20E030E048EC52E40A
:101360000E94DA196B017C01612F70E080E090E04F
:101370000E947D1AA70196010E940E1B0E947B1BF2
:101380000E944C1A162F6D2F70E080E090E00E94B2
:101390007D1AA70196010E940E1B0E947B1B0E94D2
:1013A0004C1AD62F6C2F70E080E090E00E947D1ADE
:1013B000A70196010E940E1B0E947B1B0E944C1AE3
:1013C000862F612F7D2FDF91CF911F91FF90EF909E
:1013D000DF90CF9008950E9431090E942A09089554
:1013E000209103010E94EB090895FC014281618173
:1013F00080810E94F0090895FC01262F42816181BD
:1014000080810E9431090895CF92DF92EF92FF927E
:101410001F93CF93DF93182FD62FC42F211169C0AC
:101420008823B9F0682F70E080E090E00E947B1A7A
:101430006B017C016D2F70E080E090E00E947D1ACE
:101440009B01AC01C701B6010E94091B181624F1CB
:101450002DC06623B1F070E080E090E00E947B1A1E
:101460006B017C016D2F70E080E090E00E947D1A9E
:101470009B01AC01C701B6010E94091B181674F04C
:1014800015C0442399F0642F70E080E090E00E9442
:101490007B1A6B017C010AC0DD2341F06D2F70E0E7
:1014A00080E090E00E947B1A6B017C016C2F70E061
:1014B00080E090E00E947D1A9B01AC01C701B6015B
:1014C0000E94091B181654F4CC2341F06C2F70E0D5
:1014D00080E090E00E947B1A6B017C01A7019601DD
:1014E00060E070E080E89FE30E94DA196B017C0104
:1014F0000EC0622F70E080E090E00E947D1A20E034
:1015000030E04FE753E40E94DA196B017C01612F50
:1015100070E080E090E00E947D1AA70196010E9491
:101520000E1B0E947B1B0E944C1A162F6D2F70E021
:1015300080E090E00E947D1AA70196010E940E1B98
:101540000E947B1B0E944C1AD62F6C2F70E080E00B
:1015500090E00E947D1AA70196010E940E1B0E9436
:101560007B1B0E944C1A862F612F7D2FDF91CF911C
:101570001F91FF90EF90DF90CF9008958A3030F464
:10158000E9E4F1E080818F5F80836EC08F3030F4BA
:10159000E9E4F1E080818E5F808366C0853148F4A4
:1015A000E9E4F1E080818E5F808381818F5F8183B8
:1015B0005BC0893160F4E9E4F1E080818E5F808373
:1015C00081818F5F818382818F5F82834DC08E3165
:1015D00060F4E9E4F1E080818B5F808381818F5F3B
:1015E000818382818F5F82833FC0843260F4E9E42B
:1015F000F1E080818B5F808381818B5F8183828139
:101600008F5F828331C0843360F4E9E4F1E080814C
:101610008B5F808381818B5F818382818B5F8283FB
:1016200023C0863360F4E9E4F1E08081865F808343
:1016300081818B5F818382818B5F828315C08C3334
:1016400060F4E9E4F1E08081865F808381818B5FD3
:1016500081838281865F828307C0E9E4F1E08FEFB6
:10166000808385EA818382836091490170914A0178
:1016700080914B010E942A0908950F931F930E94A5
:10168000A7060091660110916701209168013091D1
:101690006901DC01CB01801B910BA20BB30B8033E2
:1016A0009547A105B10598F00E94A70660936601D1
:1016B000709367018093680190936901809139016B
:1016C0000E94BE0A809139018F5F80933901809119
:1016D00039018D33F0F181E090E09093090180931E
:1016E000080110925E0110925A010E94A7066093B1
:1016F0006A0170936B0180936C0190936D0110925D
:1017000066011092670110926801109269010E94AF
:10171000A7066093620170936301809364019093C4
:10172000650110925D0180914E0190914F018130D1
:10173000910539F483E090E090934F0180934E013E
:1017400008C0029731F484E090E090934F018093B9
:101750004E011F910F9108958130910569F01CF49D
:10176000892B39F008958230910549F0039751F0A3
:1017700008955C985D9808955C9A5D9808955C98CA
:101780005D9A08955C9A5D9A08950F931F930E9445
:10179000A7060091660110916701209168013091C0
:1017A0006901DC01CB01801B910BA20BB30B0397EA
:1017B000A105B10520F10E94A70660936601709310
:1017C00067018093680190936901E6E4F1E020915C
:1017D00002014281618180810E94040A0E942A09DB
:1017E000809102018F3F41F410924D0110924C0103
:1017F00081E08093380103C08F5F809302011F91C5
:101800000F9108956091030183E491E00E94FC0927
:1018100060934601709347018093480110926601DE
:1018200010926701109268011092690181E090E0C6
:1018300090934D0180934C018093020110923701E7
:10184000109236018091080190910901892B59F479
:1018500081E090E0909309018093080110920B01C0
:1018600085E080935E010E94C50B08950F931F933E
:101870000E94A706009166011091670120916801FE
:1018800030916901DC01CB01801B910BA20BB30BE2
:101890000397A105B10530F10E94A7066093660188
:1018A000709367018093680190936901E6E4F1E029
:1018B000209102014281618180810E94040A0E947C
:1018C0002A098091020181508093020181110AC08E
:1018D00010924D0110924C011092380140E060E0EE
:1018E0000E94F3081F910F9108956091030183E412
:1018F00091E00E94FC096093460170934701809338
:1019000048011092660110926701109268011092CE
:10191000690182E090E090934D0180934C018FEF3C
:101920008093020180915E01863018F085E08093FB
:101930005E010E94360C08958F929F92AF92BF92E3
:10194000CF92DF92EF92FF920F931F93CF93DF938B
:101950000E94A7060091660110916701209168011D
:1019600030916901DC01CB01801B910BA20BB30B01
:101970000397A105B10508F498C00E94A7066093DB
:10198000660170936701809368019093690160918B
:10199000020170E080E090E00E947D1A20E030E0DB
:1019A0004FE753E40E94DA196B017C0160913E011C
:1019B00070913F01072E000C880B990B0E947D1A35
:1019C000A70196010E940E1B0E947B1B4B015C012C
:1019D000C0E4D1E0688170E080E090E00E947D1A70
:1019E000A50194010E946D190E944C1A062F609166
:1019F0003C0170913D01072E000C880B990B0E9451
:101A00007D1AA70196010E940E1B0E947B1B4B01B1
:101A10005C01698170E080E090E00E947D1AA50180
:101A200094010E946D190E944C1A162F60913A0180
:101A300070913B01072E000C880B990B0E947D1AB8
:101A4000A70196010E940E1B0E947B1B6B017C016B
:101A50006A8170E080E090E00E947D1AA701960103
:101A60000E946D190E944C1A862F602F712F0E94C0
:101A70002A09809102018F3F21F08F5F809302013C
:101A800014C010924D0110924C018091460190912A
:101A90004701A09148018093430190934401A09392
:101AA000450183E491E00E94F509DF91CF911F91F8
:101AB0000F91FF90EF90DF90CF90BF90AF909F90ED
:101AC0008F900895CF93242F43E050E050934D0121
:101AD00040934C01462F682F86E491E00E94CD1878
:101AE000C09103016C2F83E491E00E94FC09609394
:101AF000400170934101809342016C2F86E491E094
:101B00000E94FC09E0E4F1E0208130E0261B31096D
:101B100030933F0120933E01218130E0271B3109A2
:101B200030933D0120933C01228130E0281B310994
:101B300030933B0120933A0181E0809302010E949F
:101B40009C0CCF910895FC014281618180810E94AB
:101B5000620D08950F931F93809136019091370184
:101B6000009709F4E5C020913801222309F4E0C070
:101B70008330910521F0049709F458C0D9C00E9420
:101B8000A7060091660110916701209168013091CC
:101B90006901AB01BC01401B510B620B730B8091BF
:101BA000040190910501A0E0B0E0481759076A07C9
:101BB0007B0708F4BDC00E94A7066093660170937E
:101BC0006701809368019093690180910001909171
:101BD00001019C01225031092230310550F410924C
:101BE00001011092000140E060E08FEF0E94F009D7
:101BF0009FC0009761F481E090E090930101809391
:101C0000000140E06FEF80E00E94F00991C0019771
:101C100009F08EC082E090E0909301018093000172
:101C20004FEF60E080E00E94F00982C00E94A706AA
:101C3000009166011091670120916801309169015E
:101C4000AB01BC01401B510B620B730B8091040173
:101C500090910501A0E0B0E0481759076A077B079B
:101C600008F466C00E94A70660936601709367013E
:101C70008093680190936901809100019091010126
:101C80008330910519F08630910551F410920101CD
:101C90001092000140E060E08FEF0E94F00948C020
:101CA000009761F484E090E090930101809300013B
:101CB00040E06FEF8FEF0E94F0093AC08430910549
:101CC00061F481E090E0909301018093000140E095
:101CD0006FEF80E00E94F0092BC08130910561F424
:101CE00085E090E090930101809300014FEF6FEF4A
:101CF00080E00E94F0091CC08530910561F482E00B
:101D000090E090930101809300014FEF60E080E04C
:101D10000E94F0090DC0029759F486E090E090937C
:101D20000101809300014FEF60E08FEF0E94F00906
:101D30001F910F910895809157018F5F80935701F4
:101D400080914E0190914F01892B49F48091380187
:101D5000882319F00E94750C08950E94020C0895C2
:101D60000F931F93809154018F5F80935401809152
:101D70000801909109018530910509F481C03CF476
:101D80008130910561F0049709F444C0ADC08730FB
:101D9000910509F475C0F4F1099709F0A5C089E02F
:101DA00090E0909309018093080110925E011092D7
:101DB0006E0110926F01109270011092710180916A
:101DC0000601909107018130910589F01CF4892B5F
:101DD00039F08AC08230910589F00397B1F084C050
:101DE00081E090E090930701809306017DC082E03E
:101DF00090E0909307018093060176C083E090E025
:101E000090930701809306016FC010920701109212
:101E100006016AC00E94A70600916A0110916B0139
:101E200020916C0130916D01DC01CB01801B910B85
:101E3000A20BB30B883C9105A105B10508F454C071
:101E400010926E0110926F01109270011092710148
:101E50000E94A70660936A0170936B0180936C01E6
:101E600090936D019091610181E0890F21E02093B1
:101E70000B01883110F089EE890F8093610134C025
:101E80000E94A70600916A0110916B0120916C01DC
:101E900030916D01DC01CB01801B910BA20BB30BC8
:101EA00086399105A105B105F8F010926E011092E6
:101EB0006F0110927001109271010E94A706609349
:101EC0006A0170936B0180936C0190936D01909106
:101ED000600185E0890F21E020930B018C3310F025
:101EE00089EC890F809360011F910F910895809173
:101EF00053018F5F809353018091080190910901F4
:101F0000029780F48AE090E09093090180930801A1
:101F100010925E0110926E0110926F01109270018A
:101F20001092710108958091080190910901877FB5
:101F3000019749F080915401882319F081508093D2
:101F400054010E94B00E0895882311F02C9A089530
:101F50002C980895CF93809158018F5F80935801FA
:101F60008091080190910901009721F0813091053D
:101F7000A1F024C081E090E09093090180930801D2
:101F800010920B0110925E0110926E0110926F017F
:101F9000109270011092710129C010925E0180911F
:101FA0000601909107010E94AC0B0E9413076091FB
:101FB0000B0185E791E00E94230718C09C01245083
:101FC00031092430310590F00A9781F081E090E0EA
:101FD000909309018093080110925E0110926E01A6
:101FE00010926F01109270011092710180914E0158
:101FF00090914F0103970297E8F480915A01811163
:1020000019C00E94A70660936601709367018093D0
:10201000680190936901C1E0C0935A0180E00E9479
:10202000A40FC0930A0145EA65EA8FEF0E94F30806
:1020300010925F01CF910895CF93DF9300D01F924C
:10204000CDB7DEB7809156018F5F80935601109215
:102050006E0110926F0110927001109271018091C7
:102060004E0190914F019C012350310922303105DE
:1020700008F4B0C0E0910801F09109013197E73010
:10208000F10508F0D1C0EC5CFF4F0C940D1C82E010
:1020900090E090930901809308016EE187EB91E055
:1020A0000E945401609372017093730180937401D4
:1020B000609361017093600181E080930B01109245
:1020C0006E0110926F0110927001109271011092C6
:1020D0005E010E941307A8C083E090E0909309017D
:1020E0008093080181E080930B016EE187EB91E022
:1020F0000E94E701609372017093730180937401F1
:1021000060936101709360018FC081E090E09093D3
:1021100009018093080110920B0186C02EE14091C5
:1021200061016091600187EB91E00E94070181E00D
:1021300090E0909307018093060185E090E09093F2
:1021400009018093080110920B016EC02EE14091AD
:1021500061016091600187EB91E00E94AB0182E038
:1021600090E0909307018093060187E090E09093C0
:1021700009018093080110920B0156C02EE1409195
:1021800061016091600187EB91E00E94070181E0AD
:1021900090E0909307018093060182E090E0909395
:1021A00009018093080140C02EE1409161016091D6
:1021B000600187EB91E00E94AB0182E090E0909398
:1021C00007018093060183E090E0909309018093DA
:1021D00008012AC00397029738F510924F01109218
:1021E0004E0110925F018091430190914401A091B2
:1021F000450189839A83AB8325EA45EA6FEF83E43F
:1022000091E00E94CD1845EA65EA8FEF0E94F3083D
:10221000CE0101960E94A30D80E00E94A40F81E0F0
:1022200080930A0110925E010F900F900F90DF9142
:10223000CF910895809155018F5F809355018091D2
:102240004E0190914F01892B09F045C08091080102
:102250009091090182309105E1F01CF4992324F456
:102260000895039739F1089588E090E0909309016B
:102270008093080180E090E00E94AC0B10925E0118
:1022800010926E0110926F01109270011092710104
:10229000089584E090E090930901809308011092E2
:1022A0000B0110926E0110926F011092700110924A
:1022B0007101089586E090E09093090180930801F0
:1022C00010920B0110926E0110926F01109270012A
:1022D0001092710108951092380140E060E080E0B2
:1022E0000E94F30810924F0110924E0180E00E946C
:1022F000A40F81E080930A010895CF92DF92EF92BC
:10230000FF920F931F930E94A70600916A011091FC
:102310006B0120916C0130916D01DC01CB01801BC0
:10232000910BA20BB30B883E9340A105B10528F099
:1023300080915A01811105C0CEC080915A01882335
:1023400081F10E94A7060091620110916301209122
:10235000640130916501DC01CB01801B910BA20B64
:10236000B30B803E9349A440B105B8F010925A01D6
:102370001092660110926701109268011092690133
:102380000E94A706609362017093630180936401C9
:102390009093650110925D01B2C080915A01811144
:1023A000AEC080915D018F3108F4A5C08D3308F473
:1023B000A4C0893728F180915F018F5F80935F010E
:1023C00081E080935A0145EA65EA8FEF0E94F308A5
:1023D00080E00E94A40F80915F01833068F010922A
:1023E0004F0110924E0140E060E080E00E94F3084F
:1023F0001092380110925E0180915A0181117FC0C4
:1024000081E00E94A40F0E94A7060091660110912E
:1024100067012091680130916901DC01CB01801BCB
:10242000910BA20BB30B8A3F9105A105B10508F4EE
:1024300066C080910A01882331F045EA65EA8FEF92
:102440000E94F30805C040E060E080E00E94F308CD
:1024500090910A0181E0892780930A010E94A706D2
:10246000609366017093670180936801909369019E
:1024700046C00E94A706C0906601D0906701E09018
:102480006801F09069016C197D098E099F0924E6A5
:1024900030E040E050E00E94EB1B812F90E0A0E094
:1024A000B0E0281739074A075B0748F10E94A706E2
:1024B000609366017093670180936801909369014E
:1024C00080910A010E94A40F90910A0181E089275E
:1024D00080930A0114C080915D018F5F80935D013C
:1024E0000E94A70660936A0170936B0180936C0150
:1024F00090936D0122CF14E1BCCF15E0BACF1F91AC
:102500000F91FF90EF90DF90CF9008950F931F935E
:10251000CF93082F10E0C8010E94131CC82FC801D8
:1025200001960E94131C2C2F30E0322F2227A90184
:10253000482BCA01CF911F910F9108950F931F93BC
:10254000CF93DF93C82FD62F0E9486128C010D0FD8
:10255000111DD0E0612FCE010E941B1C602FCE0107
:1025600001960E941B1CDF91CF911F910F9108953E
:102570006091580180E00E949E1210925801609173
:10258000570182E00E949E121092570160915601FD
:1025900084E00E949E12109256016091550186E0DF
:1025A0000E949E12109255016091540188E00E9491
:1025B0009E1210925401609153018AE00E949E1273
:1025C00010925301609152018CE00E949E12109271
:1025D0005201609151018EE00E949E1210925101B1
:1025E0006091500180E10E949E1210925001089566
:1025F00087B1807F87B9529888B18F6088B95A9A1D
:1026000084B18E6184B9E9E6F0E0808181608083E5
:10261000E89AE8E6F0E0808182608083ECE6F0E012
:1026200080818F6080830E949E060E94400678947D
:102630000E9471060E9492062FEF4FEF6FEF83E426
:1026400091E00E94CD18EAE7F0E080818F778083E7
:1026500080B7806880BFE4E6F0E08081816080839D
:1026600080818460808311E00F2EF5E09F2EF02D95
:102670000F2EF5E7AF2EF1E0BF2EF02D0F2EF2EA70
:10268000CF2EF1E0DF2EF02D0F2EFDE8EF2EF1E042
:10269000FF2EF02DC8E7D1E0E0910801F09109018B
:1026A000EC30F10508F05AC3E55CFF4F0C940D1CAB
:1026B0000E94A70640906E0150906F0160907001DB
:1026C00070907101DC01CB0184199509A609B70945
:1026D000883E9340A105B10508F440C30E94A706B7
:1026E00060936E0170936F018093700190937101FC
:1026F00080910B01812780930B0180915E018530D1
:1027000018F40E94130723C0853051F480E090E054
:102710000E94AC0B68E088EB91E00E94D71817C0CC
:1027200090915901992399F09091380191110FC01E
:102730008F3069F4109209011092080100E020E046
:1027400040E060E088EB91E00E94261907C387EB28
:1027500091E00E947A0060937501709376018093F6
:10276000770180915901811119C0F5018081843070
:10277000A8F4109359010E94B81280913801811178
:102780000DC0109209011092080100E020E040E025
:1027900060E088EB91E00E942619E0C280914E0132
:1027A00090914F01892B61F480915E01853008F092
:1027B000BBC380910601909107010E94AC0B0FC032
:1027C00080910B01882339F08091060190910701D7
:1027D0000E94AC0B04C080E090E00E94AC0B8091A2
:1027E0005E01803160F420914E0130914F01235001
:1027F00031092230310518F08F5F80935E016091BE
:102800000B01C5010E942307A9C20E94A7064090A0
:102810006E0150906F016090700170907101DC0149
:10282000CB0184199509A609B70980339547A105FD
:10283000B10508F493C20E94A70660936E017093DD
:102840006F01809370019093710187EB91E00E947A
:102850007A006093750170937601809377016850D8
:10286000603108F07BC281E090E090930901809391
:10287000080110926E0110926F0110927001109277
:10288000710110925E0110920B011092590166C203
:102890000E94A70640906E0150906F0160907001F9
:1028A00070907101DC01CB0184199509A609B70963
:1028B000883E9340A105B10508F450C20E94A706C6
:1028C00060936E0170936F0180937001909371011A
:1028D0006FE088EB91E00E94D7180FE72FE74FEFEA
:1028E0006FE788EB91E00E94261983E090E00E9458
:1028F000AC0B80915E018230D1F028F4882341F046
:10290000813079F042C08330C1F08430F9F03DC0AD
:1029100040E060E08FEF0E94F308812F0E94A40F37
:1029200034C040E06FEF80E00E94F3082EC04FEF0C
:1029300060E080E00E94F30828C04FEF6FEF8FEF58
:102940000E94F30880E00E94A40F1FC0809138010C
:10295000882329F083E491E00E94F50905C040E056
:1029600060E080E00E94F30881E090E0909309012C
:102970008093080110925E0110926E0110926F0117
:102980001092700110927101E9C18091080190913B
:1029900009010A9709F0E2C180915E018F5F80937F
:1029A0005E01DCC10E94A70640906E0150906F014D
:1029B0006090700170907101DC01CB018419950960
:1029C000A609B709883E9340A105B10508F4C6C120
:1029D0000E94A70660936E0170936F01809370014F
:1029E0009093710180915E01833088F010925E01B6
:1029F00010926E0110926F0110927001109271018D
:102A000081E090E09093090180930801A7C187EBD2
:102A100091E00E9401020E947B1B0E944C1A862FAB
:102A20000E942D0880915E018F5F80935E0196C1A8
:102A30000E94A70640906E0150906F016090700157
:102A400070907101DC01CB0184199509A609B709C1
:102A5000883E9340A105B10508F480C10E94A706F5
:102A600060936E0170936F01809370019093710178
:102A7000809103010E94C80780915E01823088F036
:102A800081E090E0909309018093080190925E01AB
:102A900010926E0110926F011092700110927101EC
:102AA0005DC18F5F80935E0159C10E94A70640906F
:102AB0006E0150906F016090700170907101DC01A7
:102AC000CB0184199509A609B709883E9340A10551
:102AD000B10508F443C10E94A70660936E0170938C
:102AE0006F01809370019093710180910601909124
:102AF00007010E94AC0B80915E01823088F0109239
:102B00005E0110926E0110926F011092700110928E
:102B1000710181E090E090930901809308011EC14A
:102B20000E94130780910601909107018130910561
:102B300051F01CF4892B11F129C08230910561F00C
:102B4000039799F023C006E027E740E060E088EBB8
:102B500091E00E9426191AC00BE527E740E060E0EB
:102B600088EB91E00E94261911C00BE527E746E8A3
:102B700067E788EB91E00E94261908C00FE327E77A
:102B800040E060E088EB91E00E94261980915E01B0
:102B90008F5F80935E01E2C00E94A70640906E01A5
:102BA00050906F016090700170907101DC01CB0159
:102BB00084199509A609B709843F9140A105B1057B
:102BC00008F4CCC00E94A70660936E0170936F0159
:102BD000809370019093710180910B01882399F08B
:102BE00080910801909109018230910529F481E0DA
:102BF00090E00E94AC0B0BC0039749F482E090E098
:102C00000E94AC0B04C080E090E00E94AC0B80916D
:102C10000B01812780930B01412F6091600180910E
:102C200061010E94A8079AC00E94A70640906E0109
:102C300050906F016090700170907101DC01CB01C8
:102C400084199509A609B709843F9140A105B105EA
:102C500008F484C00E94A70660936E0170936F0110
:102C6000809370019093710180910B018823D1F0C2
:102C7000412F60916001809161010E94A8078091BD
:102C80000801909109018430910529F481E090E0D8
:102C90000E94AC0B11C0069779F482E090E00E948C
:102CA000AC0B0AC0412F609160018FE60E94A8071B
:102CB00080E090E00E94AC0B80910B018127809313
:102CC0000B014CC00E94A70640906E0150906F010E
:102CD0006090700170907101DC01CB01841995093D
:102CE000A609B709843F9140A105B105B8F10E943A
:102CF000A70660936E0170936F01809370019093AB
:102D0000710180910B018823D1F0412F6091600106
:102D1000809161010E94A8078091080190910901AA
:102D20008530910529F481E090E00E94AC0B11C040
:102D3000079779F482E090E00E94AC0B0AC0412F23
:102D40006FE6809161010E94A80780E090E00E94F8
:102D5000AC0B80910B01812780930B0180915B016B
:102D600083FF93C080915B01877F80935B0187EB3A
:102D700091E00E946502882309F43FC087EB91E04F
:102D80000E947A00609375017093760180937701B9
:102D900080910601909107018D7F019751F58091F7
:102DA00051018F5F8093510181E090E090934F013A
:102DB00080934E019093090180930801109237018E
:102DC000109236011092590190925E0110926601A4
:102DD00010926701109268011092690110923901F6
:102DE00020E040E060E089E491E00E94CD1810937B
:102DF000380187EB91E00E94820287EB91E00E940C
:102E00006A02882309F441C087EB91E00E947A00AE
:102E1000609375017093760180937701809106012C
:102E2000909107010297029760F5809150018F5FA2
:102E30008093500182E090E090934F0180934E0187
:102E400081E090E09093090180930801109237018E
:102E5000109236011092590190925E011092660113
:102E60001092670110926801109269011092390165
:102E700020E040E060E089E491E00E94CD181093EA
:102E8000380187EB91E00E94A40280914E0190915D
:102E90004F01813091055CF0833091051CF005975E
:102EA00024F005C00E943D0B02C00E947D110E94CB
:102EB000AA0DF6018081882319F0C6010E944418EA
:102EC00080915B0180FF08C080915B018E7F8093C1
:102ED0005B01C6010E944418F7018081882319F024
:102EE000C7010E94441880915B0181FF08C0809156
:102EF0005B018D7F80935B01C7010E94441888812C
:102F0000882319F0CE010E94441880915B0182FF52
:102F100008C080915B018B7F80935B01CE010E9492
:102F200044180E94F202B8CB803108F465CC67CC1B
:102F30001F920F920FB60F9211242F933F938F93EE
:102F40009F9396B180915C01892780FF0CC090917E
:102F50005C0181E0892780935C0180915B01816045
:102F600080935B013FC026B190915C0130E03595C4
:102F70002795892F90E0959587958227932780FF45
:102F80000CC090915C0182E0892780935C01809164
:102F90005B01826080935B0125C026B190915C014A
:102FA00030E03595279535952795892F90E09595B3
:102FB0008795959587958227932780FF0CC09091E0
:102FC0005C0184E0892780935C0180915B018460CF
:102FD00080935B0107C0339905C080915B018860D5
:102FE00080935B019F918F913F912F910F900FBE26
:102FF0000F901F90189588EB91E00E94D21840E046
:1030000066E270E082EA91E00E941D1841E066E20B
:1030100070E08DE891E00E941D1842E066E270E0E9
:1030200088E791E00E941D1885E791E00E947200F8
:1030300082E791E00E9472000895FC0182E385839B
:10304000DB018C91818342838EEE92E094838383B3
:103050001082108681E08683178214861386168676
:103060001586108A17860895FC017483638308957A
:10307000FC01728761870895FC0174876387089556
:10308000FC01708B67870895CF92DF92EF92FF92D9
:103090001F93CF93DF93EC01898190E00A8002C0F7
:1030A000959587950A94E2F7182F11708881811100
:1030B0000CC08F81181369C081E088830E94A70625
:1030C000698B7A8B8B8B9C8B60C0813009F04BC0F5
:1030D0008E81181321C00E94A706C988DA88EB8860
:1030E000FC88AB01BC014C195D096E097F098D811B
:1030F00090E0A0E0B0E0481759076A077B0710F49A
:10310000188243C08E81181307C0E985FA8530976D
:1031100009F00995188239C08F81181336C00E94B2
:10312000A706C988DA88EB88FC88AB01BC014C197A
:103130005D096E097F098B819C81A0E0B0E0841756
:103140009507A607B70708F581E08887EB85FC851A
:10315000309709F00995EF85F889309709F00995BE
:1031600086E0888312C0863081F48E81181308C0EF
:103170001886ED85FE85309709F00995188205C0FF
:10318000EF85F889309709F00995DF91CF911F916C
:10319000FF90EF90DF90CF900895FC016083418312
:1031A000228308952098579828985F980895FC01E5
:1031B00062830895579A85E88A95F1F7000008958B
:1031C000579A85E88A95F1F70000209885E88A9556
:1031D000F1F70000579885E88A95F1F70000089507
:1031E00088E0209A95E89A95F1F7000060FF02C008
:1031F000579801C0579A95E89A95F1F700002098E2
:1032000095E89A95F1F700006695815051F7209A5C
:10321000579885E88A95F1F70000209895E89A95E7
:10322000F1F7000099B1991F9927991F09F4579A4E
:1032300085E88A95F1F70000209A85E88A95F1F7EC
:10324000000081E0911101C080E00895EF92FF92AB
:103250000F931F93CF93DF93EC01E62EF42E122FE2
:103260000E94DA1860E4CE010E94F018CE010E949C
:10327000E018CE010E94DA1860ECCE010E94F0182E
:103280006E2DCE010E94F0186F2DCE010E94F01815
:10329000612FCE010E94F018602FCE010E94F0181D
:1032A000CE010E94E018CE010E94DA186A816F7088
:1032B0006058CE010E94F018CE010E94E018DF9104
:1032C000CF911F910F91FF90EF9008956F70E62FAF
:1032D000F0E0E45FFE4F808108955058BB27AA2795
:1032E0000E9485190C94CF1A0E94C11A38F00E94CE
:1032F000C81A20F039F49F3F19F426F40C94BE1A32
:103300000EF4E095E7FB0C94B81AE92F0E94E01A3E
:1033100058F3BA17620773078407950720F079F40A
:10332000A6F50C94021B0EF4E0950B2EBA2FA02DDF
:103330000B01B90190010C01CA01A0011124FF2762
:10334000591B99F0593F50F4503E68F11A16F0405D
:10335000A22F232F342F4427585FF3CF469537955C
:103360002795A795F0405395C9F77EF41F16BA0B21
:10337000620B730B840BBAF09150A1F0FF0FBB1FCF
:10338000661F771F881FC2F70EC0BA0F621F731F18
:10339000841F48F4879577956795B795F7959E3F75
:1033A00008F0B0CF9395880F08F09927EE0F979506
:1033B000879508950E94EE190C94CF1A0E94C81A9E
:1033C00058F00E94C11A40F029F45F3F29F00C9494
:1033D000B81A51110C94031B0C94BE1A0E94E01AE7
:1033E00068F39923B1F3552391F3951B550BBB2734
:1033F000AA2762177307840738F09F5F5F4F220F79
:10340000331F441FAA1FA9F335D00E2E3AF0E0E86F
:1034100032D091505040E695001CCAF72BD0FE2FB9
:1034200029D0660F771F881FBB1F2617370748074D
:10343000AB07B0E809F0BB0B802DBF01FF27935805
:103440005F4F3AF09E3F510578F00C94B81A0C94F7
:10345000031B5F3FE4F3983ED4F386957795679519
:10346000B795F7959F5FC9F7880F911D969587953A
:1034700097F90895E1E0660F771F881FBB1F621759
:1034800073078407BA0720F0621B730B840BBA0B17
:10349000EE1F88F7E09508950E94E81A88F09F577C
:1034A00098F0B92F9927B751B0F0E1F0660F771F68
:1034B000881F991F1AF0BA95C9F714C0B13091F05E
:1034C0000E94021BB1E008950C94021B672F782F15
:1034D0008827B85F39F0B93FCCF386957795679523
:1034E000B395D9F73EF490958095709561957F4F8F
:1034F0008F4F9F4F0895E89409C097FB3EF4909535
:103500008095709561957F4F8F4F9F4F9923A9F0BC
:10351000F92F96E9BB279395F6958795779567954B
:10352000B795F111F8CFFAF4BB0F11F460FF1BC08F
:103530006F5F7F4F8F4F9F4F16C0882311F096E922
:1035400011C0772321F09EE8872F762F05C06623D0
:1035500071F096E8862F70E060E02AF09A95660F89
:10356000771F881FDAF7880F9695879597F9089542
:1035700097F99F6780E870E060E008959FEF80EC26
:10358000089500240A9416161706180609060895C9
:1035900000240A9412161306140605060895092E2F
:1035A0000394000C11F4882352F0BB0F40F4BF2B9E
:1035B00011F460FF04C06F5F7F4F8F4F9F4F0895DE
:1035C00057FD9058440F551F59F05F3F71F04795D4
:1035D000880F97FB991F61F09F3F79F087950895B9
:1035E000121613061406551FF2CF4695F1DF08C0D8
:1035F000161617061806991FF1CF869571056105F5
:1036000008940895E894BB2766277727CB0197F99C
:1036100008950E94861B08F48FEF08950E94211BD5
:103620000C94CF1A0E94C11A38F00E94C81A20F0D8
:10363000952311F00C94B81A0C94BE1A11240C9412
:10364000031B0E94E01A70F3959FC1F3950F50E0A1
:10365000551F629FF001729FBB27F00DB11D639F44
:10366000AA27F00DB11DAA1F649F6627B00DA11DEA
:10367000661F829F2227B00DA11D621F739FB00D90
:10368000A11D621F839FA00D611D221F749F332700
:10369000A00D611D231F849F600D211D822F762F99
:1036A0006A2F11249F5750409AF0F1F088234AF076
:1036B000EE0FFF1FBB1F661F771F881F91505040E2
:1036C000A9F79E3F510580F00C94B81A0C94031B87
:1036D0005F3FE4F3983ED4F3869577956795B79569
:1036E000F795E7959F5FC1F7FE2B880F911D969583
:1036F000879597F908950E94D31B30F09F3710F4F7
:103700000C94031B0C94AA1B0C94C51B990F000866
:10371000550FAA0BE0E8FEEF16161706E807F907A3
:10372000C0F012161306E407F50798F0621B730B3E
:10373000840B950B39F40A2661F0232B242B252BBF
:1037400021F408950A2609F4A140A6958FEF811D62
:10375000811D0895882371F4772321F09850872BD9
:10376000762F07C0662311F499270DC09051862B40
:1037700070E060E02AF09A95660F771F881FDAF7ED
:10378000880F9695879597F908959F3F31F091504E
:1037900020F4879577956795B795880F911D969535
:1037A000879597F908950E94E81AA0F0BEE7B91727
:1037B00088F4BB279F3860F41616B11D672F782F49
:1037C0008827985FF7CF869577956795B11D939574
:1037D0009639C8F30895A1E21A2EAA1BBB1BFD015E
:1037E0000DC0AA1FBB1FEE1FFF1FA217B307E407E0
:1037F000F50720F0A21BB30BE40BF50B661F771F38
:10380000881F991F1A9469F7609570958095909517
:103810009B01AC01BD01CF010895EE0FFF1F059084
:10382000F491E02D0994F999FECF92BD81BDF89AEB
:10383000992780B50895262FF999FECF92BD81BDB5
:10384000F89A019700B4021639F01FBA20BD0FB6DE
:0E385000F894FA9AF99A0FBE0895F894FFCFF3
:10385E0003000164E8030300010001013F065B4F12
:0C386E00666D7D077F6F777C395E797195
:00000001FF
